:0400000080314A28D9
:1000060008007E1480310B1F09280A284828210081
:10001600111E0E280F281B282000111E1328142835
:100026001B2821006F088A006E080A0080314828C4
:100036002100911E1F2820282C282000911E2428EC
:1000460025282C2821006D088A006C080A008031BA
:1000560048282100921D302831283A282000921D78
:10006600352836283A288D319425803148282100B4
:10007600911D3E283F2848282000911D43284428EA
:1000860048288D319825803148287E100900803116
:100096004C28F830840087308500483086000130CF
:1000A600870008308D31C8258031F901FA01FB013E
:1000B600FC01FD01693084000030850007308D3178
:1000C600C2258031A03084000030850048308D3153
:1000D600C2258031203084000130850028308D31E2
:1000E600C22580317E1020008F31D92F20002E08A6
:1000F60086008701403FB000413FB10030088400D0
:10010600310885001200253A031D8A288B28CE293E
:100116002E08860087010130810741310318810AC4
:100126002100D801D90100302000ED00FF30210068
:10013600DA00FF30DB0020002E0886008701403FF2
:10014600B500413FB6003508840036088500120028
:10015600643A0319AF28B028BA283508840036084F
:1001660085001200693A031DB928BA2846292F08C6
:100176008600870101088400850102308107003F5F
:10018600B700013FB8003508013EB0000030363DEB
:10019600B1002E08860087013008C03F3108C13FF4
:1001A6002030BB00B81BD828DA280130DB28003005
:1001B600B4000130BB023B08203E860001308700B8
:1001C6000A30A0000030A1003808A3003708A200BA
:1001D60085312B25803120002108A7002008A600A4
:1001E6008E31A126803120002608303E81000A305B
:1001F600A0000030A1003808A3003708A20084310F
:100206007524803120002108B8002008B70037087F
:10021600380403190F29102915293B08031D142931
:100226001529DC283B08031919291A293F293408FE
:1002360003191E291F293F290130BB023B08203E16
:100246008600013087002D3081003F293B08203E83
:100256008600013087000108B000B1013008A30014
:100266003108A4002D08A6002C08A5008431172407
:10027600803101302000BB0720303B06031D442996
:1002860045292929E8293508840036088500120001
:10029600753A031D4F295029C4292F088600870166
:1002A60001088400850102308107003FB700013F45
:1002B600B8003508013EB0000030363DB1002E08CA
:1002C600860087013008C03F3108C13FBB29203076
:1002D600BB000130BB023B08203E86000130870090
:1002E6000A30A0000030A1003808A3003708A20099
:1002F60087310E27803120002008303E81000A30E9
:10030600A0000030A1003808A3003708A2008631FB
:100316006526803120002108B8002008B70037087C
:100326003804031997299829B4293B08031D9C29E9
:100336009D296C29B4293B08203E860001308700A0
:100346000108B000B1013008A3003108A4002D084F
:10035600A6002C08A5008431172480310130200026
:10036600BB0720303B06031DB929BA299E29E82977
:1003760035088400360885000008753A03196A298D
:10038600C42920002E0886008701013081074131EB
:100396000318810AE8292E0886008701403FB0002D
:1003A600413FB10030088400310885000008B200E2
:1003B600B3013208A3003308A4002D08A6002C08B8
:1003C600A500843117248031C42908002100520871
:1003D6000319EE29EF29862A692A56082000A0006B
:1003E600210057088E31B326813120002108A9004B
:1003F6002008A8008E31DA268131832A560820008B
:10040600A000210057088E31B32681312000210833
:10041600A9002008A8008E31F2268131832A220005
:100426000E1614302000C4009130C5008E3180268F
:100436008131832A22000E1205302000C40091303B
:10044600C5008E3180268131832A52302000C400B7
:100456009030C5008E318026813148302000D3008F
:100466008331112381311C302000C4009030C50037
:100476008E3180268131832A2A302000C4009130B3
:10048600C5006A08C7006908C6008E31802681311A
:10049600832A0B1680302000C4009030C5008E31B0
:1004A60080268131832A0B126A302000C4009030E6
:1004B600C5008E3180268131832A95302000C40004
:1004C6009030C5008E3180268131832A5508423A04
:1004D60003193F2A073A0319122A0C3A03194C2A20
:1004E600053A0319F0291C3A0319282A023A031976
:1004F600012A373A03191D2A0C3A0319562A602A8B
:100506002100D201102B530803198A2A8B2A002BAB
:100516003F082000A00021003E088E31B32681311D
:1005260020002108DC002008DB0021004108200013
:10053600A000210040088E31B32681312000210819
:10054600DE002008DD00210043082000A000210075
:1005560042088E31B326813120002108E0002008B0
:10056600DF00210045082000A000210044088E314C
:10057600B326813120002108E2002008E100210095
:1005860047082000A000210046088E31B32681319D
:1005960020002108E4002008E3002100490820008B
:1005A600A000210048088E31B326813120002108A1
:1005B600E6002008E500E330C4009030C50062087C
:1005C600C7006108C6006408C9006308C800660859
:1005D600CB006508CA005C08CD005B08CC005E084D
:1005E600CF005D08CE006008D1005F08D0008E31D4
:1005F600802681312100D301102B54080319042BC6
:10060600052B102B02308F319527813120002108D0
:10061600EA002008E9002100D4010800F530200096
:10062600C4009030C5008E318026833122000E1220
:1006360029302000D5009630D4007F30890B212B3D
:10064600D40B212BD50B212BFF302000A800FF3027
:10065600A9008E31DA268331FF302000A800FF3052
:10066600A9008E31F226833103302000D5000830F0
:10067600D4007730890B3D2BD40B3D2BD50B3D2B6E
:10068600BE302000C4009030C5008E3180268331F4
:1006960022000E1629302000D5009630D4007F3077
:1006A600890B532BD40B532BD50B532B0030200027
:1006B600C4009030C5008E31802683312930200059
:1006C600D5009630D4007F30890B672BD40B672B6F
:1006D600D50B672B2000DA013730C4009030C500F7
:1006E6005A08D400D5015408C6005508C7008E31F3
:1006F600802683312000D601D701932B15302000A8
:10070600D5004B30D400BE30890B872BD40B872BFA
:10071600D50B872B000001302000D6070030D73DCF
:100726005708803AD40080305402031D9C2B5A0887
:100736005602031C9F2BA02B812B00302000A80003
:10074600A9008E31DA26833100302000A800A900E6
:100756008E31F22683312000D801D901C42B153001
:100766002000D5004B30D400BE30890BB82BD40BFB
:10077600B82BD50BB82B000001302000D80700306D
:10078600D93D53085A078600013087005908803A38
:10079600D40080305402031DD22B01085802031CDA
:1007A600D52BD62BB22BFF302000A800FF30A90096
:1007B6008E31DA268331FF302000A800FF30A900F1
:1007C6008E31F226833101302000DA0708305A02D2
:1007D600031CEE2BEF2B6F2B15302000D5004B3072
:1007E600D400BE30890BF52BD40BF52BD50BF52B8E
:1007F600000000302000A800A9008E31DA268331DF
:1008060000302000A800A9008E31F226833129305D
:100816002000D5009630D4007F30890B102CD40BE5
:10082600102CD50B102C08002000250826040319CF
:100836001D2C1E2C242C25082604031D232C242CB9
:10084600292C23088E3190268431742C25088600A5
:10085600260887004931160001040319332C342C6D
:10086600542C25088600260887004931403FA700FA
:10087600413FA80025088600260887004231403FF0
:10088600A900413FAA002A08803AAB002808803A0E
:100896002B02031D502C270829020318532C542C15
:1008A600742C20002508860026088700423125087A
:1008B600840026088500003FA700013FA800403FAE
:1008C60027078400413F283D85002308800025082E
:1008D600860026088700423101308107413103181E
:1008E600810A08002000A501A11F7A2C7B2C822CEE
:1008F600A009A109A00A0319A10A0130A500A31F96
:10090600852C862C8D2CA209A309A20A0319A30AF9
:100916000130A506A601A701200821040319942C7D
:10092600952CC22C0130A4009F2C0130A035A10DBE
:10093600890B992C0130A407A11FA22CA32C982C5B
:100946000130A635A70D890BA42C21082302031D0F
:10095600AE2C20082202031CB12CB22CB72C200886
:10096600A2022108A33B26140130A136A00C890B54
:10097600B82C0130A402031DC12CC22CA32C2508BF
:100986000319C62CC72CCC2CA609A709A60A03193D
:10099600A70A2708A1002608A00008007A35A03E6D
:1009A600860087010030C03FC13F23009D1CDC2C20
:1009B600DD2CEE2C7A35A03E86008701011521003C
:1009C6005C085D040319E82CE92CEE2C5D088A000E
:1009D6005C080A00843123001D1DF22CF32C042D23
:1009E6007A35A03E86008701811421005E085F04E7
:1009F6000319FE2CFF2C042D5F088A005E080A00EE
:100A0600853123001908F7007A08013E0739F800F6
:100A160078087906031D102D112D122D1E2D7A082A
:100A2600403E860001308700770881007808FA008A
:100A360001302000EF072100600861040319242D0E
:100A4600252D2A2D61088A0060080A0085310800D4
:100A56002000A501A31F302D312D382DA209A30991
:100A6600A20A0319A30A0130A500A11F3B2D3C2DA4
:100A7600412DA009A109A00A0319A10A20082104F1
:100A86000319462D472D6E2D0130A400512D01303E
:100A9600A035A10D890B4B2D0130A407A11F542DA4
:100AA600552D4A2D21082302031D5B2D2008220205
:100AB600031C5E2D5F2D632D2008A2022108A33B97
:100AC6000130A136A00C890B642D0130A402031D50
:100AD6006D2D6E2D552D25080319722D732D782D2C
:100AE600A209A309A20A0319A30A2308A10022083E
:100AF600A0000800F501F31F812D822D892DF20932
:100B0600F309F20A0319F30A0130F500F11F8C2DDF
:100B16008D2D922DF009F109F00A0319F10A7008DA
:100B260071040319972D982DBF2D0130F400A22DC5
:100B36000130F035F10D890B9C2D0130F407F11FC2
:100B4600A52DA62D9B2D71087302031DAC2D7008D3
:100B56007202031CAF2DB02DB42D7008F20271087D
:100B6600F33B0130F136F00C890BB52D0130F40260
:100B7600031DBE2DBF2DA62D75080319C32DC42D2B
:100B8600C92DF209F309F20A0319F30A7308F100F1
:100B96007208F00008008D31572585312400141E97
:100BA600D52DD62DDA2D8E31C5268531062E8D31E1
:100BB600DC258531003A0319E12DE22DF02D8D312A
:100BC600B6258531003A0319E92DEA2DF02D0530B9
:100BD6002100BD000130BC00062E8D31A5258531D2
:100BE600003A0319F72DF82D062E8D31B6258531DD
:100BF600003A0319FF2D002E062E05302100BD00F8
:100C06000230BC00062E21003D08F200F301F23549
:100C1600F30DD130720784001030733D80388500A3
:100C2600013F8A00003F0A0086312100BD0008000E
:100C360022008C0103308E000F3021008C002730FB
:100C46008E00373023008C0008308E003F302400A1
:100C56008C003F308E002100951325008C018E01FB
:100C6600373026008C003F308E003F3027008C0046
:100C76003F308E0015303C00A4000E303D0095003C
:100C86000F3094001430A30010303C00A000103048
:100C96003D00A00011303C00A10011303D00A10034
:100CA6002700910192019301043097009801990160
:100CB60000302000A0000030A1008E3104268631CD
:100CC6008B1508002000A401A501200821040319A2
:100CD6006D2E6E2E9B2E0130A600782E0130A0358B
:100CE600A10D890B722E0130A607A11F7B2E7C2E2B
:100CF600712E0130A435A50D890B7D2E2108230206
:100D0600031D872E20082202031C8A2E8B2E902E6E
:100D16002008A2022108A33B24140130A136A00C0E
:100D2600890B912E0130A602031D9A2E9B2E7C2E36
:100D36002508A1002408A00008000430F0008D3129
:100D460088258631003A0319A92EAA2ED52E210010
:100D560039083A040319B02EB12EC22E3708860080
:100D6600380887008D315D258631810001302100EC
:100D7600B7070030B83D0130B9020030BA3B390838
:100D86003A040319C72EC82ECC2E8D318425863100
:100D9600D82E8D31632586318D318C2586310730ED
:100DA600F000D82E8D3160258631700808002100AC
:100DB6009112D130EC000430ED0011120A30EE0031
:100DC6000F30EF00483023009F0090309D00263002
:100DD6009E00A0309B0001309C0003302000A00044
:100DE6000030A1008E314426863178302000A000E4
:100DF6000D30A1008E31532686312100E401E50134
:100E0600FD01FC010830FB00FA01F9012000EF01A9
:100E16002100911608002000200821040319142F30
:100E2600152F3C2F0130A4001F2F0130A035A10D36
:100E3600890B192F0130A407A11F222F232F182F4A
:100E460021082302031D292F20082202031C2C2F10
:100E56002D2F312F2008A2022108A33B0130A136F5
:100E6600A00C890B322F0130A402031D3B2F3C2F0F
:100E7600232F2308A1002208A00008008B130B13C0
:100E86008D3169258731CF302000A0000730A100C1
:100E96008E31712687318D316F2587318D316C25E5
:100EA60087318D31752587318D31722587318B17C5
:100EB6000B1715302000D4004B30D300BE30890B01
:100EC600622FD30B622FD40B622F0000223020003A
:100ED600C4009130C5008E31802687310800DA348F
:100EE60006340034003423340F34B6340F3400345F
:100EF6000034F3340D340034003472340D340034CD
:100F0600003400340034003400340034003400343B
:100F1600003400340034003400340034003400342B
:100F260000340034003471340E3400340034443458
:100F36000E3453340E3400340034003400342100AF
:100F4600350836040319A82FA92FBD2F0130B50285
:100F56000030B63B330886003408870001088D311F
:100F6600A025873101302100B3070030B43D03309E
:100F7600F100CD2F3B080319C12FC22FC92FBB018A
:100F86008D31662587310130F100CD2F8D31EB256E
:100F96008731F100710808008F3123278731F60069
:100FA6000D307606031DD82FD92FDF2F01302100F3
:100FB600D2002000EE01F72F20006E08D53E8600F5
:100FC6008701760881000330F0000030F1006E08DA
:100FD600013EF200003003180130F30085317D2513
:100FE600873170082000EE00080001340234013415
:0A0FF60001340234013401340134E7
:101AA800200092110800200091110800240016154A
:101AB80008002400110808002400961508002400D6
:101AC8009610080024009614080023009D170800AB
:101AD80023001D16080021009116080023009E16F9
:101AE800080021001116080023001D121D16080009
:101AF8002400951295160800240095131513080064
:101B0800240096121616080024001408013908004B
:101B180024009616161608002100B00108300800A7
:101B28008F315A278D3108008531CE258D31080037
:101B38002100911592150800F0007008240091000A
:101B480008002400140E890C013908008D31EB259A
:101B58008D31F000700808008D31D5258D31F000E9
:101B6800700808002400160E890C890C0139080039
:101B780020002108EC002008EB0008006400800128
:101B88000131890BC32D0034FE0012001E00FE0B2C
:101B9800C92D0034210031358D31A0258D31033018
:101BA80008008D317C258D312100B00100300800FE
:101BB80003102400941E03140030093D0800031488
:101BC8002100310D8D31A0258D31043008008D3173
:101BD8005A258D318E31C5268D31003008007B089D
:101BE800031DF72DF92D0130FA2D003008007A3049
:101BF80021009900803022009600210098010800F9
:101C0800200021082100EB00200020082100EA0024
:101C1800080080302C00990098019701CF302500EA
:101C28009E05080080302C009C009B019A013F30E3
:101C380025009E050800203021009E009B019C0184
:101C48009F0101309D002000111308008B10210016
:101C5800151700302000A0000030A1008D31BC25F0
:101C68008E310800FF3020009B009A0100302100CF
:101C7800E8000030E9002000911004309C000800C2
:101C880020002008210403194A2E4B2E522E210829
:101C98002100DF00200020082100DE0008002000CD
:101CA800200821040319592E5A2E612E21082100DB
:101CB800DD00200020082100DC000800803024001E
:101CC80094000830950096019701093092008D31F3
:101CD8009C258E3124009516080020002008210438
:101CE8000319772E782E7F2E21082100E10020008D
:101CF80020082100E000080046302000D200003013
:101D0800BC00BD004508BF004408BE005230C000FA
:101D18008F3177278E3108002000A2008D31F325FE
:101D28008E31003A0319992E9A2E922E20002208FD
:101D3800A0008F31B6278E3108002000A71BA52EE2
:101D4800A62EA72EB22E2609A8002709A900A80AA0
:101D58000319A90A2808A6002908A70008002000D6
:101D6800A7002708A200A3012208A300A2012208B5
:101D7800A5002308A60025082004A0002608A10025
:101D880008002100B0010030B200FF30B100B301FB
:101D9800B401B701B801BD018D3157258E318D31A0
:101DA80054258E318D3180258E3108002000290878
:101DB800AB002808AA00AB36AA0CAB36AA0C2A0836
:101DC8002C009800200028080339AA000630AA35FC
:101DD800890BEB2E2A082C00970008002000290800
:101DE800AB002808AA00AB36AA0CAB36AA0C2A0806
:101DF8002C009B00200028080339AA000630AA35C9
:101E0800890B032F2A082C009A00080008307B024F
:101E180003180F2F102F202F7C08CA3E8600870139
:101E2800010823009A007C08013E0739F000700879
:101E3800FC000130FB07222F21001112080079084D
:101E4800403E8600013087000108F1007908013E14
:101E58000739F0007008F9002100911220006F087E
:101E68000319372F382F3A2F0130EF02210091162E
:101E7800710808008D31FB258F3186311B268F3183
:101E88008E3136268F318E311F268F318631DA26F4
:101E98008F318E3162268F318E310D268F318E3102
:101EA80016268F318E312A268F3108000630210000
:101EB800BD000330BC008D3154258F3121003D0811
:101EC800F200F301F235F30DD130720784001030BF
:101ED800733D80388500013F8A00003F0A008F313A
:101EE8002100BD00080020003F08C3003E08C200D2
:101EF800882F3D08AD003C08AC004230AE004008D9
:101F0800AF00803179208F312000420884004308D7
:101F180085001200031D912F922F7D2FBC01BD015A
:101F280008002000A3002308A200A20DA20D210092
:101F38001D08200022068339220621009D001D1459
:101F48000630890BA52F003221009D149D18AD2F56
:101F5800AE2FAA2F1C082000A10021001B0820007A
:101F6800A00008002100111ABA2FBB2FC02F200093
:101F7800200823009A00D62F7B080319C42FC52FE9
:101F8800D62F7D08CA3E86008701200020088100E0
:101F98007D08013E0739A1002108FD00210011122A
:101FA8000130FB022100111608008F313E278F31C6
:101FB80002308F3195278F3120002008E700210853
:101FC800E8000630E836E70C890BE62F6708E900D9
:101FD8006808EA006A08A9006908A8008E31DA26AC
:101FE8008F3120006A08A9006908A8008E31F226FE
:101FF8008F31DC2F80314A2845346E34743465348F
:10200800723469346E3467342034503472346F3427
:102018006734723461346D346D3469346E346734C6
:1020280020344D346F34643465340D340A3400344C
:102038004534533443342034503472346F34673465
:10204800723461346D346D3469346E3467342034DD
:1020580043346F346D3470346C346534743465349F
:102068000D340A340034503472346F3467347234A7
:1020780061346D346D3469346E34673420345034CF
:102088006134723461346D34653474346534723457
:102098002034253475340D340A340034453453342F
:1020A80043342034503472346F34673472346134BA
:1020B8006D346D3469346E34673420345334743479
:1020C8006134723474340D340A34003449344D3474
:1020D80055342034533474347234653461346D3477
:1020E8002034443469347334613462346C34653474
:1020F80064340D340A34003449344D3455342034B2
:10210800533474347234653461346D342034453456
:102118006E34613462346C34653464340D340A349A
:10212800003443344D34443420346E346F347434C2
:1021380020345234653463346F3467346E34693410
:102148007A34653464340D340A34003462340E341D
:1021580000340034003400340034003400340034D7
:1021680000340034003400340034003400340034C7
:102178000034003450346F34773465347234693441
:102188006E34673420346F346E342034453453341D
:10219800433473340D340A34003490340D34E3344A
:1021A8000D34CE340D34A2340734A0340634AA34A6
:1021B8000D34B0340D34EB340D34D5340D342534AE
:1021C80064342C34253464342C34253464342C346D
:1021D800253464342C34253464342C342534643464
:1021E80000345234653473346534743469346E346D
:1021F8006734203445345334433473340D340A344B
:10220800003445345334433420344434693473340B
:10221800613462346C34653464340D340A34003407
:10222800453453344334203445346E346134623495
:102238006C34653464340D340A34003452346534F3
:102248006134643479340D340A34003425347534F7
:02225800003450
:020000040001F9
:04000E00E43FFF3E8E
:00000001FF
